{
  "contractName": "CstoryNFT",
  "abi": [
    {
      "inputs": [],
      "stateMutability": "payable",
      "type": "constructor",
      "payable": true
    },
    {
      "anonymous": false,
      "inputs": [
        {
          "indexed": true,
          "internalType": "address",
          "name": "owner",
          "type": "address"
        },
        {
          "indexed": true,
          "internalType": "address",
          "name": "approved",
          "type": "address"
        },
        {
          "indexed": true,
          "internalType": "uint256",
          "name": "tokenId",
          "type": "uint256"
        }
      ],
      "name": "Approval",
      "type": "event"
    },
    {
      "anonymous": false,
      "inputs": [
        {
          "indexed": true,
          "internalType": "address",
          "name": "owner",
          "type": "address"
        },
        {
          "indexed": true,
          "internalType": "address",
          "name": "operator",
          "type": "address"
        },
        {
          "indexed": false,
          "internalType": "bool",
          "name": "approved",
          "type": "bool"
        }
      ],
      "name": "ApprovalForAll",
      "type": "event"
    },
    {
      "anonymous": false,
      "inputs": [
        {
          "indexed": true,
          "internalType": "address",
          "name": "from",
          "type": "address"
        },
        {
          "indexed": true,
          "internalType": "address",
          "name": "to",
          "type": "address"
        },
        {
          "indexed": true,
          "internalType": "uint256",
          "name": "tokenId",
          "type": "uint256"
        }
      ],
      "name": "Transfer",
      "type": "event"
    },
    {
      "anonymous": false,
      "inputs": [
        {
          "indexed": false,
          "internalType": "address",
          "name": "",
          "type": "address"
        },
        {
          "indexed": false,
          "internalType": "uint256",
          "name": "",
          "type": "uint256"
        }
      ],
      "name": "whoMinted",
      "type": "event"
    },
    {
      "inputs": [],
      "name": "active",
      "outputs": [
        {
          "internalType": "bool",
          "name": "",
          "type": "bool"
        }
      ],
      "stateMutability": "view",
      "type": "function",
      "constant": true
    },
    {
      "inputs": [
        {
          "internalType": "address",
          "name": "to",
          "type": "address"
        },
        {
          "internalType": "uint256",
          "name": "tokenId",
          "type": "uint256"
        }
      ],
      "name": "approve",
      "outputs": [],
      "stateMutability": "nonpayable",
      "type": "function"
    },
    {
      "inputs": [
        {
          "internalType": "address",
          "name": "owner",
          "type": "address"
        }
      ],
      "name": "balanceOf",
      "outputs": [
        {
          "internalType": "uint256",
          "name": "",
          "type": "uint256"
        }
      ],
      "stateMutability": "view",
      "type": "function",
      "constant": true
    },
    {
      "inputs": [
        {
          "internalType": "uint256",
          "name": "tokenId",
          "type": "uint256"
        }
      ],
      "name": "getApproved",
      "outputs": [
        {
          "internalType": "address",
          "name": "",
          "type": "address"
        }
      ],
      "stateMutability": "view",
      "type": "function",
      "constant": true
    },
    {
      "inputs": [
        {
          "internalType": "uint256",
          "name": "",
          "type": "uint256"
        }
      ],
      "name": "idToAddress",
      "outputs": [
        {
          "internalType": "address",
          "name": "",
          "type": "address"
        }
      ],
      "stateMutability": "view",
      "type": "function",
      "constant": true
    },
    {
      "inputs": [
        {
          "internalType": "address",
          "name": "owner",
          "type": "address"
        },
        {
          "internalType": "address",
          "name": "operator",
          "type": "address"
        }
      ],
      "name": "isApprovedForAll",
      "outputs": [
        {
          "internalType": "bool",
          "name": "",
          "type": "bool"
        }
      ],
      "stateMutability": "view",
      "type": "function",
      "constant": true
    },
    {
      "inputs": [],
      "name": "name",
      "outputs": [
        {
          "internalType": "string",
          "name": "",
          "type": "string"
        }
      ],
      "stateMutability": "view",
      "type": "function",
      "constant": true
    },
    {
      "inputs": [
        {
          "internalType": "address",
          "name": "",
          "type": "address"
        },
        {
          "internalType": "uint256",
          "name": "",
          "type": "uint256"
        }
      ],
      "name": "ownerNFT",
      "outputs": [
        {
          "internalType": "uint256",
          "name": "id",
          "type": "uint256"
        },
        {
          "internalType": "string",
          "name": "name",
          "type": "string"
        },
        {
          "internalType": "string",
          "name": "tpe",
          "type": "string"
        },
        {
          "internalType": "string",
          "name": "class",
          "type": "string"
        },
        {
          "internalType": "string",
          "name": "rarity",
          "type": "string"
        }
      ],
      "stateMutability": "view",
      "type": "function",
      "constant": true
    },
    {
      "inputs": [
        {
          "internalType": "uint256",
          "name": "tokenId",
          "type": "uint256"
        }
      ],
      "name": "ownerOf",
      "outputs": [
        {
          "internalType": "address",
          "name": "",
          "type": "address"
        }
      ],
      "stateMutability": "view",
      "type": "function",
      "constant": true
    },
    {
      "inputs": [
        {
          "internalType": "address",
          "name": "from",
          "type": "address"
        },
        {
          "internalType": "address",
          "name": "to",
          "type": "address"
        },
        {
          "internalType": "uint256",
          "name": "tokenId",
          "type": "uint256"
        }
      ],
      "name": "safeTransferFrom",
      "outputs": [],
      "stateMutability": "nonpayable",
      "type": "function"
    },
    {
      "inputs": [
        {
          "internalType": "address",
          "name": "from",
          "type": "address"
        },
        {
          "internalType": "address",
          "name": "to",
          "type": "address"
        },
        {
          "internalType": "uint256",
          "name": "tokenId",
          "type": "uint256"
        },
        {
          "internalType": "bytes",
          "name": "_data",
          "type": "bytes"
        }
      ],
      "name": "safeTransferFrom",
      "outputs": [],
      "stateMutability": "nonpayable",
      "type": "function"
    },
    {
      "inputs": [
        {
          "internalType": "address",
          "name": "operator",
          "type": "address"
        },
        {
          "internalType": "bool",
          "name": "approved",
          "type": "bool"
        }
      ],
      "name": "setApprovalForAll",
      "outputs": [],
      "stateMutability": "nonpayable",
      "type": "function"
    },
    {
      "inputs": [
        {
          "internalType": "bytes4",
          "name": "interfaceId",
          "type": "bytes4"
        }
      ],
      "name": "supportsInterface",
      "outputs": [
        {
          "internalType": "bool",
          "name": "",
          "type": "bool"
        }
      ],
      "stateMutability": "view",
      "type": "function",
      "constant": true
    },
    {
      "inputs": [],
      "name": "symbol",
      "outputs": [
        {
          "internalType": "string",
          "name": "",
          "type": "string"
        }
      ],
      "stateMutability": "view",
      "type": "function",
      "constant": true
    },
    {
      "inputs": [
        {
          "internalType": "uint256",
          "name": "tokenId",
          "type": "uint256"
        }
      ],
      "name": "tokenURI",
      "outputs": [
        {
          "internalType": "string",
          "name": "",
          "type": "string"
        }
      ],
      "stateMutability": "view",
      "type": "function",
      "constant": true
    },
    {
      "inputs": [
        {
          "internalType": "address",
          "name": "from",
          "type": "address"
        },
        {
          "internalType": "address",
          "name": "to",
          "type": "address"
        },
        {
          "internalType": "uint256",
          "name": "tokenId",
          "type": "uint256"
        }
      ],
      "name": "transferFrom",
      "outputs": [],
      "stateMutability": "nonpayable",
      "type": "function"
    },
    {
      "inputs": [
        {
          "internalType": "uint256",
          "name": "_rarity",
          "type": "uint256"
        }
      ],
      "name": "mint",
      "outputs": [],
      "stateMutability": "payable",
      "type": "function",
      "payable": true
    },
    {
      "inputs": [],
      "name": "getAllNFT",
      "outputs": [
        {
          "components": [
            {
              "internalType": "uint256",
              "name": "id",
              "type": "uint256"
            },
            {
              "internalType": "string",
              "name": "name",
              "type": "string"
            },
            {
              "internalType": "string",
              "name": "tpe",
              "type": "string"
            },
            {
              "internalType": "string",
              "name": "class",
              "type": "string"
            },
            {
              "internalType": "string",
              "name": "rarity",
              "type": "string"
            }
          ],
          "internalType": "struct CstoryNFT.weapon[]",
          "name": "",
          "type": "tuple[]"
        }
      ],
      "stateMutability": "view",
      "type": "function",
      "constant": true
    },
    {
      "inputs": [
        {
          "internalType": "address",
          "name": "_address",
          "type": "address"
        }
      ],
      "name": "getOwnerArmasNFT",
      "outputs": [
        {
          "components": [
            {
              "internalType": "uint256",
              "name": "id",
              "type": "uint256"
            },
            {
              "internalType": "string",
              "name": "name",
              "type": "string"
            },
            {
              "internalType": "string",
              "name": "tpe",
              "type": "string"
            },
            {
              "internalType": "string",
              "name": "class",
              "type": "string"
            },
            {
              "internalType": "string",
              "name": "rarity",
              "type": "string"
            }
          ],
          "internalType": "struct CstoryNFT.weapon[]",
          "name": "",
          "type": "tuple[]"
        }
      ],
      "stateMutability": "view",
      "type": "function",
      "constant": true
    },
    {
      "inputs": [],
      "name": "activacion",
      "outputs": [],
      "stateMutability": "nonpayable",
      "type": "function"
    },
    {
      "inputs": [
        {
          "internalType": "address payable",
          "name": "_to",
          "type": "address"
        },
        {
          "internalType": "uint256",
          "name": "_amount",
          "type": "uint256"
        }
      ],
      "name": "sendEther",
      "outputs": [],
      "stateMutability": "payable",
      "type": "function",
      "payable": true
    },
    {
      "inputs": [
        {
          "internalType": "address",
          "name": "_wallet",
          "type": "address"
        }
      ],
      "name": "balanceContract",
      "outputs": [
        {
          "internalType": "uint256",
          "name": "",
          "type": "uint256"
        }
      ],
      "stateMutability": "view",
      "type": "function",
      "constant": true
    },
    {
      "inputs": [
        {
          "internalType": "uint256",
          "name": "_tokenId",
          "type": "uint256"
        }
      ],
      "name": "quemaNFT",
      "outputs": [],
      "stateMutability": "nonpayable",
      "type": "function"
    }
  ],
  "bytecode": "0x60806040526000600b556000600c60006101000a81548160ff0219169083151502179055506040518060400160405280600381526020017f4e465400000000000000000000000000000000000000000000000000000000008152506040518060400160405280600981526020017f4353544f52594e465400000000000000000000000000000000000000000000008152508160009080519060200190620000a89291906200014c565b508060019080519060200190620000c19291906200014c565b50505030600660006101000a81548173ffffffffffffffffffffffffffffffffffffffff021916908373ffffffffffffffffffffffffffffffffffffffff16021790555033600760006101000a81548173ffffffffffffffffffffffffffffffffffffffff021916908373ffffffffffffffffffffffffffffffffffffffff16021790555062000260565b8280546200015a906200022b565b90600052602060002090601f0160209004810192826200017e5760008555620001ca565b82601f106200019957805160ff1916838001178555620001ca565b82800160010185558215620001ca579182015b82811115620001c9578251825591602001919060010190620001ac565b5b509050620001d99190620001dd565b5090565b5b80821115620001f8576000816000905550600101620001de565b5090565b7f4e487b7100000000000000000000000000000000000000000000000000000000600052602260045260246000fd5b600060028204905060018216806200024457607f821691505b6020821081036200025a5762000259620001fc565b5b50919050565b613e0680620002706000396000f3fe6080604052600436106101405760003560e01c806370a08231116100b6578063c1756a2c1161006f578063c1756a2c1461045d578063c87b56dd14610479578063ca299410146104b6578063deeb79a3146104f3578063e985e9c514610534578063f3b1633d1461057157610140565b806370a082311461035e5780637bc7cee71461039b57806395d89b41146103c4578063a0712d68146103ef578063a22cb4651461040b578063b88d4fde1461043457610140565b80630f510a74116101085780630f510a741461023e57806323b872dd146102555780632a2d0c471461027e57806342842e0e146102bb57806355c5c20b146102e45780636352211e1461032157610140565b806301ffc9a71461014557806302fb0c5e1461018257806306fdde03146101ad578063081812fc146101d8578063095ea7b314610215575b600080fd5b34801561015157600080fd5b5061016c60048036038101906101679190612a41565b61059c565b6040516101799190612a89565b60405180910390f35b34801561018e57600080fd5b5061019761067e565b6040516101a49190612a89565b60405180910390f35b3480156101b957600080fd5b506101c2610691565b6040516101cf9190612b3d565b60405180910390f35b3480156101e457600080fd5b506101ff60048036038101906101fa9190612b95565b610723565b60405161020c9190612c03565b60405180910390f35b34801561022157600080fd5b5061023c60048036038101906102379190612c4a565b6107a8565b005b34801561024a57600080fd5b506102536108bf565b005b34801561026157600080fd5b5061027c60048036038101906102779190612c8a565b610945565b005b34801561028a57600080fd5b506102a560048036038101906102a09190612b95565b6109a5565b6040516102b29190612c03565b60405180910390f35b3480156102c757600080fd5b506102e260048036038101906102dd9190612c8a565b6109d8565b005b3480156102f057600080fd5b5061030b60048036038101906103069190612cdd565b6109f8565b6040516103189190612eb0565b60405180910390f35b34801561032d57600080fd5b5061034860048036038101906103439190612b95565b610da7565b6040516103559190612c03565b60405180910390f35b34801561036a57600080fd5b5061038560048036038101906103809190612cdd565b610e58565b6040516103929190612ee1565b60405180910390f35b3480156103a757600080fd5b506103c260048036038101906103bd9190612b95565b610f0f565b005b3480156103d057600080fd5b506103d9610f75565b6040516103e69190612b3d565b60405180910390f35b61040960048036038101906104049190612b95565b611007565b005b34801561041757600080fd5b50610432600480360381019061042d9190612f28565b611464565b005b34801561044057600080fd5b5061045b6004803603810190610456919061309d565b61147a565b005b6104776004803603810190610472919061315e565b6114dc565b005b34801561048557600080fd5b506104a0600480360381019061049b9190612b95565b611581565b6040516104ad9190612b3d565b60405180910390f35b3480156104c257600080fd5b506104dd60048036038101906104d89190612cdd565b611628565b6040516104ea9190612ee1565b60405180910390f35b3480156104ff57600080fd5b5061051a60048036038101906105159190612c4a565b611649565b60405161052b95949392919061319e565b60405180910390f35b34801561054057600080fd5b5061055b6004803603810190610556919061320d565b6118ac565b6040516105689190612a89565b60405180910390f35b34801561057d57600080fd5b50610586611940565b6040516105939190612eb0565b60405180910390f35b60007f80ac58cd000000000000000000000000000000000000000000000000000000007bffffffffffffffffffffffffffffffffffffffffffffffffffffffff1916827bffffffffffffffffffffffffffffffffffffffffffffffffffffffff1916148061066757507f5b5e139f000000000000000000000000000000000000000000000000000000007bffffffffffffffffffffffffffffffffffffffffffffffffffffffff1916827bffffffffffffffffffffffffffffffffffffffffffffffffffffffff1916145b80610677575061067682611bf1565b5b9050919050565b600c60009054906101000a900460ff1681565b6060600080546106a09061327c565b80601f01602080910402602001604051908101604052809291908181526020018280546106cc9061327c565b80156107195780601f106106ee57610100808354040283529160200191610719565b820191906000526020600020905b8154815290600101906020018083116106fc57829003601f168201915b5050505050905090565b600061072e82611c5b565b61076d576040517f08c379a00000000000000000000000000000000000000000000000000000000081526004016107649061331f565b60405180910390fd5b6004600083815260200190815260200160002060009054906101000a900473ffffffffffffffffffffffffffffffffffffffff169050919050565b60006107b382610da7565b90508073ffffffffffffffffffffffffffffffffffffffff168373ffffffffffffffffffffffffffffffffffffffff1603610823576040517f08c379a000000000000000000000000000000000000000000000000000000000815260040161081a906133b1565b60405180910390fd5b8073ffffffffffffffffffffffffffffffffffffffff16610842611cc7565b73ffffffffffffffffffffffffffffffffffffffff16148061087157506108708161086b611cc7565b6118ac565b5b6108b0576040517f08c379a00000000000000000000000000000000000000000000000000000000081526004016108a790613443565b60405180910390fd5b6108ba8383611ccf565b505050565b600760009054906101000a900473ffffffffffffffffffffffffffffffffffffffff1673ffffffffffffffffffffffffffffffffffffffff163373ffffffffffffffffffffffffffffffffffffffff161461091957600080fd5b600c60009054906101000a900460ff1615600c60006101000a81548160ff021916908315150217905550565b610956610950611cc7565b82611d88565b610995576040517f08c379a000000000000000000000000000000000000000000000000000000000815260040161098c906134d5565b60405180910390fd5b6109a0838383611e66565b505050565b600a6020528060005260406000206000915054906101000a900473ffffffffffffffffffffffffffffffffffffffff1681565b6109f38383836040518060200160405280600081525061147a565b505050565b60606000610a0583610e58565b67ffffffffffffffff811115610a1e57610a1d612f72565b5b604051908082528060200260200182016040528015610a5757816020015b610a44612903565b815260200190600190039081610a3c5790505b5090506000805b600880549050811015610d9c578473ffffffffffffffffffffffffffffffffffffffff16600a6000600184610a939190613524565b815260200190815260200160002060009054906101000a900473ffffffffffffffffffffffffffffffffffffffff1673ffffffffffffffffffffffffffffffffffffffff1603610d7b5760088181548110610af157610af061357a565b5b90600052602060002090600502016040518060a001604052908160008201548152602001600182018054610b249061327c565b80601f0160208091040260200160405190810160405280929190818152602001828054610b509061327c565b8015610b9d5780601f10610b7257610100808354040283529160200191610b9d565b820191906000526020600020905b815481529060010190602001808311610b8057829003601f168201915b50505050508152602001600282018054610bb69061327c565b80601f0160208091040260200160405190810160405280929190818152602001828054610be29061327c565b8015610c2f5780601f10610c0457610100808354040283529160200191610c2f565b820191906000526020600020905b815481529060010190602001808311610c1257829003601f168201915b50505050508152602001600382018054610c489061327c565b80601f0160208091040260200160405190810160405280929190818152602001828054610c749061327c565b8015610cc15780601f10610c9657610100808354040283529160200191610cc1565b820191906000526020600020905b815481529060010190602001808311610ca457829003601f168201915b50505050508152602001600482018054610cda9061327c565b80601f0160208091040260200160405190810160405280929190818152602001828054610d069061327c565b8015610d535780601f10610d2857610100808354040283529160200191610d53565b820191906000526020600020905b815481529060010190602001808311610d3657829003601f168201915b505050505081525050838381518110610d6f57610d6e61357a565b5b60200260200101819052505b8180610d86906135a9565b9250508080610d94906135a9565b915050610a5e565b508192505050919050565b6000806002600084815260200190815260200160002060009054906101000a900473ffffffffffffffffffffffffffffffffffffffff169050600073ffffffffffffffffffffffffffffffffffffffff168173ffffffffffffffffffffffffffffffffffffffff1603610e4f576040517f08c379a0000000000000000000000000000000000000000000000000000000008152600401610e4690613663565b60405180910390fd5b80915050919050565b60008073ffffffffffffffffffffffffffffffffffffffff168273ffffffffffffffffffffffffffffffffffffffff1603610ec8576040517f08c379a0000000000000000000000000000000000000000000000000000000008152600401610ebf906136f5565b60405180910390fd5b600360008373ffffffffffffffffffffffffffffffffffffffff1673ffffffffffffffffffffffffffffffffffffffff168152602001908152602001600020549050919050565b600760009054906101000a900473ffffffffffffffffffffffffffffffffffffffff1673ffffffffffffffffffffffffffffffffffffffff163373ffffffffffffffffffffffffffffffffffffffff1614610f6957600080fd5b610f72816120cc565b50565b606060018054610f849061327c565b80601f0160208091040260200160405190810160405280929190818152602001828054610fb09061327c565b8015610ffd5780601f10610fd257610100808354040283529160200191610ffd565b820191906000526020600020905b815481529060010190602001808311610fe057829003601f168201915b5050505050905090565b60011515600c60009054906101000a900460ff1615151461105d576040517f08c379a000000000000000000000000000000000000000000000000000000000815260040161105490613761565b60405180910390fd5b6000811161106a57600080fd5b611073816121e9565b34101561107f57600080fd5b600060405180606001604052806040518060400160405280600781526020017f436f6d6d6f6e640000000000000000000000000000000000000000000000000081525081526020016040518060400160405280600481526020017f457069630000000000000000000000000000000000000000000000000000000081525081526020016040518060400160405280600981526020017f4c6567656e6461727900000000000000000000000000000000000000000000008152508152509050600b6000815480929190611150906135a9565b919050555060006040518060a00160405280600b5481526020016040518060400160405280600381526020017f616e6b000000000000000000000000000000000000000000000000000000000081525081526020016040518060400160405280600581526020017f73776f726400000000000000000000000000000000000000000000000000000081525081526020016040518060400160405280600781526020017f77617272696f72000000000000000000000000000000000000000000000000008152508152602001836001866112299190613781565b6003811061123a5761123961357a565b5b602002015181525090506008819080600181540180825580915050600190039060005260206000209060050201600090919091909150600082015181600001556020820151816001019080519060200190611296929190612932565b5060408201518160020190805190602001906112b3929190612932565b5060608201518160030190805190602001906112d0929190612932565b5060808201518160040190805190602001906112ed929190612932565b50505080600960003373ffffffffffffffffffffffffffffffffffffffff1673ffffffffffffffffffffffffffffffffffffffff1681526020019081526020016000206000600b548152602001908152602001600020600082015181600001556020820151816001019080519060200190611369929190612932565b506040820151816002019080519060200190611386929190612932565b5060608201518160030190805190602001906113a3929190612932565b5060808201518160040190805190602001906113c0929190612932565b5090505033600a6000600b54815260200190815260200160002060006101000a81548173ffffffffffffffffffffffffffffffffffffffff021916908373ffffffffffffffffffffffffffffffffffffffff16021790555061142433600b54612237565b7f78418ff568141e73c048d2d26b7aa46b1ee4a800d9d6e7abba4b34375f7be0f633600b546040516114579291906137b5565b60405180910390a1505050565b61147661146f611cc7565b8383612410565b5050565b61148b611485611cc7565b83611d88565b6114ca576040517f08c379a00000000000000000000000000000000000000000000000000000000081526004016114c1906134d5565b60405180910390fd5b6114d68484848461257c565b50505050565b600760009054906101000a900473ffffffffffffffffffffffffffffffffffffffff1673ffffffffffffffffffffffffffffffffffffffff163373ffffffffffffffffffffffffffffffffffffffff161461153657600080fd5b8173ffffffffffffffffffffffffffffffffffffffff166108fc829081150290604051600060405180830381858888f1935050505015801561157c573d6000803e3d6000fd5b505050565b606061158c82611c5b565b6115cb576040517f08c379a00000000000000000000000000000000000000000000000000000000081526004016115c290613850565b60405180910390fd5b60006115d56125d8565b905060008151116115f55760405180602001604052806000815250611620565b806115ff846125ef565b6040516020016116109291906138ac565b6040516020818303038152906040525b915050919050565b60008173ffffffffffffffffffffffffffffffffffffffff16319050919050565b60096020528160005260406000206020528060005260406000206000915091505080600001549080600101805461167f9061327c565b80601f01602080910402602001604051908101604052809291908181526020018280546116ab9061327c565b80156116f85780601f106116cd576101008083540402835291602001916116f8565b820191906000526020600020905b8154815290600101906020018083116116db57829003601f168201915b50505050509080600201805461170d9061327c565b80601f01602080910402602001604051908101604052809291908181526020018280546117399061327c565b80156117865780601f1061175b57610100808354040283529160200191611786565b820191906000526020600020905b81548152906001019060200180831161176957829003601f168201915b50505050509080600301805461179b9061327c565b80601f01602080910402602001604051908101604052809291908181526020018280546117c79061327c565b80156118145780601f106117e957610100808354040283529160200191611814565b820191906000526020600020905b8154815290600101906020018083116117f757829003601f168201915b5050505050908060040180546118299061327c565b80601f01602080910402602001604051908101604052809291908181526020018280546118559061327c565b80156118a25780601f10611877576101008083540402835291602001916118a2565b820191906000526020600020905b81548152906001019060200180831161188557829003601f168201915b5050505050905085565b6000600560008473ffffffffffffffffffffffffffffffffffffffff1673ffffffffffffffffffffffffffffffffffffffff16815260200190815260200160002060008373ffffffffffffffffffffffffffffffffffffffff1673ffffffffffffffffffffffffffffffffffffffff16815260200190815260200160002060009054906101000a900460ff16905092915050565b60606008805480602002602001604051908101604052809291908181526020016000905b82821015611be857838290600052602060002090600502016040518060a0016040529081600082015481526020016001820180546119a19061327c565b80601f01602080910402602001604051908101604052809291908181526020018280546119cd9061327c565b8015611a1a5780601f106119ef57610100808354040283529160200191611a1a565b820191906000526020600020905b8154815290600101906020018083116119fd57829003601f168201915b50505050508152602001600282018054611a339061327c565b80601f0160208091040260200160405190810160405280929190818152602001828054611a5f9061327c565b8015611aac5780601f10611a8157610100808354040283529160200191611aac565b820191906000526020600020905b815481529060010190602001808311611a8f57829003601f168201915b50505050508152602001600382018054611ac59061327c565b80601f0160208091040260200160405190810160405280929190818152602001828054611af19061327c565b8015611b3e5780601f10611b1357610100808354040283529160200191611b3e565b820191906000526020600020905b815481529060010190602001808311611b2157829003601f168201915b50505050508152602001600482018054611b579061327c565b80601f0160208091040260200160405190810160405280929190818152602001828054611b839061327c565b8015611bd05780601f10611ba557610100808354040283529160200191611bd0565b820191906000526020600020905b815481529060010190602001808311611bb357829003601f168201915b50505050508152505081526020019060010190611964565b50505050905090565b60007f01ffc9a7000000000000000000000000000000000000000000000000000000007bffffffffffffffffffffffffffffffffffffffffffffffffffffffff1916827bffffffffffffffffffffffffffffffffffffffffffffffffffffffff1916149050919050565b60008073ffffffffffffffffffffffffffffffffffffffff166002600084815260200190815260200160002060009054906101000a900473ffffffffffffffffffffffffffffffffffffffff1673ffffffffffffffffffffffffffffffffffffffff1614159050919050565b600033905090565b816004600083815260200190815260200160002060006101000a81548173ffffffffffffffffffffffffffffffffffffffff021916908373ffffffffffffffffffffffffffffffffffffffff160217905550808273ffffffffffffffffffffffffffffffffffffffff16611d4283610da7565b73ffffffffffffffffffffffffffffffffffffffff167f8c5be1e5ebec7d5bd14f71427d1e84f3dd0314c0f7b2291e5b200ac8c7c3b92560405160405180910390a45050565b6000611d9382611c5b565b611dd2576040517f08c379a0000000000000000000000000000000000000000000000000000000008152600401611dc990613942565b60405180910390fd5b6000611ddd83610da7565b90508073ffffffffffffffffffffffffffffffffffffffff168473ffffffffffffffffffffffffffffffffffffffff161480611e1f5750611e1e81856118ac565b5b80611e5d57508373ffffffffffffffffffffffffffffffffffffffff16611e4584610723565b73ffffffffffffffffffffffffffffffffffffffff16145b91505092915050565b8273ffffffffffffffffffffffffffffffffffffffff16611e8682610da7565b73ffffffffffffffffffffffffffffffffffffffff1614611edc576040517f08c379a0000000000000000000000000000000000000000000000000000000008152600401611ed3906139d4565b60405180910390fd5b600073ffffffffffffffffffffffffffffffffffffffff168273ffffffffffffffffffffffffffffffffffffffff1603611f4b576040517f08c379a0000000000000000000000000000000000000000000000000000000008152600401611f4290613a66565b60405180910390fd5b611f5683838361274f565b611f61600082611ccf565b6001600360008573ffffffffffffffffffffffffffffffffffffffff1673ffffffffffffffffffffffffffffffffffffffff1681526020019081526020016000206000828254611fb19190613781565b925050819055506001600360008473ffffffffffffffffffffffffffffffffffffffff1673ffffffffffffffffffffffffffffffffffffffff16815260200190815260200160002060008282546120089190613524565b92505081905550816002600083815260200190815260200160002060006101000a81548173ffffffffffffffffffffffffffffffffffffffff021916908373ffffffffffffffffffffffffffffffffffffffff160217905550808273ffffffffffffffffffffffffffffffffffffffff168473ffffffffffffffffffffffffffffffffffffffff167fddf252ad1be2c89b69c2b068fc378daa952ba7f163c4a11628f55a4df523b3ef60405160405180910390a46120c7838383612754565b505050565b60006120d782610da7565b90506120e58160008461274f565b6120f0600083611ccf565b6001600360008373ffffffffffffffffffffffffffffffffffffffff1673ffffffffffffffffffffffffffffffffffffffff16815260200190815260200160002060008282546121409190613781565b925050819055506002600083815260200190815260200160002060006101000a81549073ffffffffffffffffffffffffffffffffffffffff021916905581600073ffffffffffffffffffffffffffffffffffffffff168273ffffffffffffffffffffffffffffffffffffffff167fddf252ad1be2c89b69c2b068fc378daa952ba7f163c4a11628f55a4df523b3ef60405160405180910390a46121e581600084612754565b5050565b6000600182036122025766470de4df8200009050612232565b6002820361221957668e1bc9bf0400009050612232565b600382036122315767011c37937e0800009050612232565b5b919050565b600073ffffffffffffffffffffffffffffffffffffffff168273ffffffffffffffffffffffffffffffffffffffff16036122a6576040517f08c379a000000000000000000000000000000000000000000000000000000000815260040161229d90613ad2565b60405180910390fd5b6122af81611c5b565b156122ef576040517f08c379a00000000000000000000000000000000000000000000000000000000081526004016122e690613b3e565b60405180910390fd5b6122fb6000838361274f565b6001600360008473ffffffffffffffffffffffffffffffffffffffff1673ffffffffffffffffffffffffffffffffffffffff168152602001908152602001600020600082825461234b9190613524565b92505081905550816002600083815260200190815260200160002060006101000a81548173ffffffffffffffffffffffffffffffffffffffff021916908373ffffffffffffffffffffffffffffffffffffffff160217905550808273ffffffffffffffffffffffffffffffffffffffff16600073ffffffffffffffffffffffffffffffffffffffff167fddf252ad1be2c89b69c2b068fc378daa952ba7f163c4a11628f55a4df523b3ef60405160405180910390a461240c60008383612754565b5050565b8173ffffffffffffffffffffffffffffffffffffffff168373ffffffffffffffffffffffffffffffffffffffff160361247e576040517f08c379a000000000000000000000000000000000000000000000000000000000815260040161247590613baa565b60405180910390fd5b80600560008573ffffffffffffffffffffffffffffffffffffffff1673ffffffffffffffffffffffffffffffffffffffff16815260200190815260200160002060008473ffffffffffffffffffffffffffffffffffffffff1673ffffffffffffffffffffffffffffffffffffffff16815260200190815260200160002060006101000a81548160ff0219169083151502179055508173ffffffffffffffffffffffffffffffffffffffff168373ffffffffffffffffffffffffffffffffffffffff167f17307eab39ab6107e8899845ad3d59bd9653f200f220920489ca2b5937696c318360405161256f9190612a89565b60405180910390a3505050565b612587848484611e66565b61259384848484612759565b6125d2576040517f08c379a00000000000000000000000000000000000000000000000000000000081526004016125c990613c3c565b60405180910390fd5b50505050565b606060405180602001604052806000815250905090565b606060008203612636576040518060400160405280600181526020017f3000000000000000000000000000000000000000000000000000000000000000815250905061274a565b600082905060005b60008214612668578080612651906135a9565b915050600a826126619190613c8b565b915061263e565b60008167ffffffffffffffff81111561268457612683612f72565b5b6040519080825280601f01601f1916602001820160405280156126b65781602001600182028036833780820191505090505b5090505b60008514612743576001826126cf9190613781565b9150600a856126de9190613cbc565b60306126ea9190613524565b60f81b818381518110612700576126ff61357a565b5b60200101907effffffffffffffffffffffffffffffffffffffffffffffffffffffffffffff1916908160001a905350600a8561273c9190613c8b565b94506126ba565b8093505050505b919050565b505050565b505050565b600061277a8473ffffffffffffffffffffffffffffffffffffffff166128e0565b156128d3578373ffffffffffffffffffffffffffffffffffffffff1663150b7a026127a3611cc7565b8786866040518563ffffffff1660e01b81526004016127c59493929190613d42565b6020604051808303816000875af192505050801561280157506040513d601f19601f820116820180604052508101906127fe9190613da3565b60015b612883573d8060008114612831576040519150601f19603f3d011682016040523d82523d6000602084013e612836565b606091505b50600081510361287b576040517f08c379a000000000000000000000000000000000000000000000000000000000815260040161287290613c3c565b60405180910390fd5b805181602001fd5b63150b7a0260e01b7bffffffffffffffffffffffffffffffffffffffffffffffffffffffff1916817bffffffffffffffffffffffffffffffffffffffffffffffffffffffff1916149150506128d8565b600190505b949350505050565b6000808273ffffffffffffffffffffffffffffffffffffffff163b119050919050565b6040518060a0016040528060008152602001606081526020016060815260200160608152602001606081525090565b82805461293e9061327c565b90600052602060002090601f01602090048101928261296057600085556129a7565b82601f1061297957805160ff19168380011785556129a7565b828001600101855582156129a7579182015b828111156129a657825182559160200191906001019061298b565b5b5090506129b491906129b8565b5090565b5b808211156129d15760008160009055506001016129b9565b5090565b6000604051905090565b600080fd5b600080fd5b60007fffffffff0000000000000000000000000000000000000000000000000000000082169050919050565b612a1e816129e9565b8114612a2957600080fd5b50565b600081359050612a3b81612a15565b92915050565b600060208284031215612a5757612a566129df565b5b6000612a6584828501612a2c565b91505092915050565b60008115159050919050565b612a8381612a6e565b82525050565b6000602082019050612a9e6000830184612a7a565b92915050565b600081519050919050565b600082825260208201905092915050565b60005b83811015612ade578082015181840152602081019050612ac3565b83811115612aed576000848401525b50505050565b6000601f19601f8301169050919050565b6000612b0f82612aa4565b612b198185612aaf565b9350612b29818560208601612ac0565b612b3281612af3565b840191505092915050565b60006020820190508181036000830152612b578184612b04565b905092915050565b6000819050919050565b612b7281612b5f565b8114612b7d57600080fd5b50565b600081359050612b8f81612b69565b92915050565b600060208284031215612bab57612baa6129df565b5b6000612bb984828501612b80565b91505092915050565b600073ffffffffffffffffffffffffffffffffffffffff82169050919050565b6000612bed82612bc2565b9050919050565b612bfd81612be2565b82525050565b6000602082019050612c186000830184612bf4565b92915050565b612c2781612be2565b8114612c3257600080fd5b50565b600081359050612c4481612c1e565b92915050565b60008060408385031215612c6157612c606129df565b5b6000612c6f85828601612c35565b9250506020612c8085828601612b80565b9150509250929050565b600080600060608486031215612ca357612ca26129df565b5b6000612cb186828701612c35565b9350506020612cc286828701612c35565b9250506040612cd386828701612b80565b9150509250925092565b600060208284031215612cf357612cf26129df565b5b6000612d0184828501612c35565b91505092915050565b600081519050919050565b600082825260208201905092915050565b6000819050602082019050919050565b612d3f81612b5f565b82525050565b600082825260208201905092915050565b6000612d6182612aa4565b612d6b8185612d45565b9350612d7b818560208601612ac0565b612d8481612af3565b840191505092915050565b600060a083016000830151612da76000860182612d36565b5060208301518482036020860152612dbf8282612d56565b91505060408301518482036040860152612dd98282612d56565b91505060608301518482036060860152612df38282612d56565b91505060808301518482036080860152612e0d8282612d56565b9150508091505092915050565b6000612e268383612d8f565b905092915050565b6000602082019050919050565b6000612e4682612d0a565b612e508185612d15565b935083602082028501612e6285612d26565b8060005b85811015612e9e5784840389528151612e7f8582612e1a565b9450612e8a83612e2e565b925060208a01995050600181019050612e66565b50829750879550505050505092915050565b60006020820190508181036000830152612eca8184612e3b565b905092915050565b612edb81612b5f565b82525050565b6000602082019050612ef66000830184612ed2565b92915050565b612f0581612a6e565b8114612f1057600080fd5b50565b600081359050612f2281612efc565b92915050565b60008060408385031215612f3f57612f3e6129df565b5b6000612f4d85828601612c35565b9250506020612f5e85828601612f13565b9150509250929050565b600080fd5b600080fd5b7f4e487b7100000000000000000000000000000000000000000000000000000000600052604160045260246000fd5b612faa82612af3565b810181811067ffffffffffffffff82111715612fc957612fc8612f72565b5b80604052505050565b6000612fdc6129d5565b9050612fe88282612fa1565b919050565b600067ffffffffffffffff82111561300857613007612f72565b5b61301182612af3565b9050602081019050919050565b82818337600083830152505050565b600061304061303b84612fed565b612fd2565b90508281526020810184848401111561305c5761305b612f6d565b5b61306784828561301e565b509392505050565b600082601f83011261308457613083612f68565b5b813561309484826020860161302d565b91505092915050565b600080600080608085870312156130b7576130b66129df565b5b60006130c587828801612c35565b94505060206130d687828801612c35565b93505060406130e787828801612b80565b925050606085013567ffffffffffffffff811115613108576131076129e4565b5b6131148782880161306f565b91505092959194509250565b600061312b82612bc2565b9050919050565b61313b81613120565b811461314657600080fd5b50565b60008135905061315881613132565b92915050565b60008060408385031215613175576131746129df565b5b600061318385828601613149565b925050602061319485828601612b80565b9150509250929050565b600060a0820190506131b36000830188612ed2565b81810360208301526131c58187612b04565b905081810360408301526131d98186612b04565b905081810360608301526131ed8185612b04565b905081810360808301526132018184612b04565b90509695505050505050565b60008060408385031215613224576132236129df565b5b600061323285828601612c35565b925050602061324385828601612c35565b9150509250929050565b7f4e487b7100000000000000000000000000000000000000000000000000000000600052602260045260246000fd5b6000600282049050600182168061329457607f821691505b6020821081036132a7576132a661324d565b5b50919050565b7f4552433732313a20617070726f76656420717565727920666f72206e6f6e657860008201527f697374656e7420746f6b656e0000000000000000000000000000000000000000602082015250565b6000613309602c83612aaf565b9150613314826132ad565b604082019050919050565b60006020820190508181036000830152613338816132fc565b9050919050565b7f4552433732313a20617070726f76616c20746f2063757272656e74206f776e6560008201527f7200000000000000000000000000000000000000000000000000000000000000602082015250565b600061339b602183612aaf565b91506133a68261333f565b604082019050919050565b600060208201905081810360008301526133ca8161338e565b9050919050565b7f4552433732313a20617070726f76652063616c6c6572206973206e6f74206f7760008201527f6e6572206e6f7220617070726f76656420666f7220616c6c0000000000000000602082015250565b600061342d603883612aaf565b9150613438826133d1565b604082019050919050565b6000602082019050818103600083015261345c81613420565b9050919050565b7f4552433732313a207472616e736665722063616c6c6572206973206e6f74206f60008201527f776e6572206e6f7220617070726f766564000000000000000000000000000000602082015250565b60006134bf603183612aaf565b91506134ca82613463565b604082019050919050565b600060208201905081810360008301526134ee816134b2565b9050919050565b7f4e487b7100000000000000000000000000000000000000000000000000000000600052601160045260246000fd5b600061352f82612b5f565b915061353a83612b5f565b9250827fffffffffffffffffffffffffffffffffffffffffffffffffffffffffffffffff0382111561356f5761356e6134f5565b5b828201905092915050565b7f4e487b7100000000000000000000000000000000000000000000000000000000600052603260045260246000fd5b60006135b482612b5f565b91507fffffffffffffffffffffffffffffffffffffffffffffffffffffffffffffffff82036135e6576135e56134f5565b5b600182019050919050565b7f4552433732313a206f776e657220717565727920666f72206e6f6e657869737460008201527f656e7420746f6b656e0000000000000000000000000000000000000000000000602082015250565b600061364d602983612aaf565b9150613658826135f1565b604082019050919050565b6000602082019050818103600083015261367c81613640565b9050919050565b7f4552433732313a2061646472657373207a65726f206973206e6f74206120766160008201527f6c6964206f776e65720000000000000000000000000000000000000000000000602082015250565b60006136df602983612aaf565b91506136ea82613683565b604082019050919050565b6000602082019050818103600083015261370e816136d2565b9050919050565b7f53616c65206973206e6f74206163746976617465000000000000000000000000600082015250565b600061374b601483612aaf565b915061375682613715565b602082019050919050565b6000602082019050818103600083015261377a8161373e565b9050919050565b600061378c82612b5f565b915061379783612b5f565b9250828210156137aa576137a96134f5565b5b828203905092915050565b60006040820190506137ca6000830185612bf4565b6137d76020830184612ed2565b9392505050565b7f4552433732314d657461646174613a2055524920717565727920666f72206e6f60008201527f6e6578697374656e7420746f6b656e0000000000000000000000000000000000602082015250565b600061383a602f83612aaf565b9150613845826137de565b604082019050919050565b600060208201905081810360008301526138698161382d565b9050919050565b600081905092915050565b600061388682612aa4565b6138908185613870565b93506138a0818560208601612ac0565b80840191505092915050565b60006138b8828561387b565b91506138c4828461387b565b91508190509392505050565b7f4552433732313a206f70657261746f7220717565727920666f72206e6f6e657860008201527f697374656e7420746f6b656e0000000000000000000000000000000000000000602082015250565b600061392c602c83612aaf565b9150613937826138d0565b604082019050919050565b6000602082019050818103600083015261395b8161391f565b9050919050565b7f4552433732313a207472616e736665722066726f6d20696e636f72726563742060008201527f6f776e6572000000000000000000000000000000000000000000000000000000602082015250565b60006139be602583612aaf565b91506139c982613962565b604082019050919050565b600060208201905081810360008301526139ed816139b1565b9050919050565b7f4552433732313a207472616e7366657220746f20746865207a65726f2061646460008201527f7265737300000000000000000000000000000000000000000000000000000000602082015250565b6000613a50602483612aaf565b9150613a5b826139f4565b604082019050919050565b60006020820190508181036000830152613a7f81613a43565b9050919050565b7f4552433732313a206d696e7420746f20746865207a65726f2061646472657373600082015250565b6000613abc602083612aaf565b9150613ac782613a86565b602082019050919050565b60006020820190508181036000830152613aeb81613aaf565b9050919050565b7f4552433732313a20746f6b656e20616c7265616479206d696e74656400000000600082015250565b6000613b28601c83612aaf565b9150613b3382613af2565b602082019050919050565b60006020820190508181036000830152613b5781613b1b565b9050919050565b7f4552433732313a20617070726f766520746f2063616c6c657200000000000000600082015250565b6000613b94601983612aaf565b9150613b9f82613b5e565b602082019050919050565b60006020820190508181036000830152613bc381613b87565b9050919050565b7f4552433732313a207472616e7366657220746f206e6f6e20455243373231526560008201527f63656976657220696d706c656d656e7465720000000000000000000000000000602082015250565b6000613c26603283612aaf565b9150613c3182613bca565b604082019050919050565b60006020820190508181036000830152613c5581613c19565b9050919050565b7f4e487b7100000000000000000000000000000000000000000000000000000000600052601260045260246000fd5b6000613c9682612b5f565b9150613ca183612b5f565b925082613cb157613cb0613c5c565b5b828204905092915050565b6000613cc782612b5f565b9150613cd283612b5f565b925082613ce257613ce1613c5c565b5b828206905092915050565b600081519050919050565b600082825260208201905092915050565b6000613d1482613ced565b613d1e8185613cf8565b9350613d2e818560208601612ac0565b613d3781612af3565b840191505092915050565b6000608082019050613d576000830187612bf4565b613d646020830186612bf4565b613d716040830185612ed2565b8181036060830152613d838184613d09565b905095945050505050565b600081519050613d9d81612a15565b92915050565b600060208284031215613db957613db86129df565b5b6000613dc784828501613d8e565b9150509291505056fea26469706673582212203a16c3dbeedc4c5fb6ecaad1755f833d9712168c8166d1e8f93c6f818272a65564736f6c634300080d0033",
  "immutableReferences": {},
  "source": "// SPDX-License-Identifier: GPL-3.0\n\npragma solidity >=0.4.0 <0.9.0;\npragma experimental ABIEncoderV2;\n\nimport \"./ERC721full.sol\";\n\ncontract CstoryNFT is ERC721{\n\n    //Contract Addres\n    address contrato;\n    //Owner\n    address owner;\n    //Guardar armas NFT\n    weapon [] weapons;\n    // Referencia por billetera\n    mapping(address => mapping(uint => weapon)) public ownerNFT;\n    // Referencia de ID por billetera\n    mapping(uint => address) public idToAddress;\n    //Contador NFT\n    uint _id = 0;\n    //Activador\n    bool public active = false;\n    //Cuerpo del NFT\n\n    struct weapon{\n        uint id;\n        string name;\n        string tpe;\n        string class;\n        string rarity;\n    }\n\n    //minting event\n\n    event whoMinted(address, uint);\n\n    constructor() ERC721(\"NFT\", \"CSTORYNFT\")  payable{\n        contrato = address(this);\n        owner = msg.sender;\n\n    }\n\n   \n    \n    function mint (uint _rarity) public payable{\n    \n        //requerimientos\n        require(active == true, \"Sale is not activate\");\n        require(_rarity>0); \n        require(msg.value >= NFTPrice(_rarity));\n        //Ririties\n        string [3] memory rarities = [\"Commond\", \"Epic\", \"Legendary\"];\n        //contador     \n        _id ++;\n        //guardar armas nft\n        weapon memory newWeapon = weapon(_id , \"ank\", \"sword\", \"warrior\", rarities[_rarity-1]);\n        weapons.push(newWeapon);\n        //Referencia del NFT por billetera\n        ownerNFT[msg.sender][_id] = newWeapon;\n        idToAddress[_id] = msg.sender;\n        //minteo\n        _mint(msg.sender, _id);\n        // quien minteo?\n        emit whoMinted(msg.sender, _id);\n    }\n\n    // Precios de los NFT\n\n    function NFTPrice(uint _rarity)internal returns(uint _cost){\n        if(_rarity == 1){\n            return 0.02 ether;\n        }\n        if(_rarity == 2){\n            return 0.04 ether;\n        }\n        if(_rarity == 3){\n            return 0.08 ether;\n        }\n    }\n\n    //Ver todos los NFT\n\n  function getAllNFT() public view returns(weapon[]memory){\n      return weapons;\n  }\n\n  // Armas de una direccion en especifico\n\n  function getOwnerArmasNFT(address _address) public view returns(weapon[]memory){\n        weapon[] memory result = new weapon[](balanceOf(_address));\n        uint256 counter = 0;\n            for(uint i = 0; i < weapons.length; i++){\n                if(idToAddress[i+1] == _address)\n                result[counter] = weapons[i];\n                counter ++;\n            }\n            return result;\n    }\n\n    // Activacion del minteo\n\n    function activacion()public onlyOwner{\n        active = !active;\n    }\n\n\n    modifier onlyOwner(){\n        require(msg.sender == owner);\n        _;\n    }\n\n     // RETIRAR DEL CONTRATO\n\n\n   function sendEther(address payable _to, uint256 _amount) public payable onlyOwner{\n       _to.transfer(_amount);\n   }\n\n    function balanceContract(address _wallet) public view returns(uint256){\n        return _wallet.balance;\n    }\n\n\n    // burn token\n\n    function quemaNFT(uint256 _tokenId) public onlyOwner{\n        _burn(_tokenId);\n    }\n\n\n}",
  "sourcePath": "/Users/sau/Desktop/NFTCStory-master/contracts/NFT.sol",
  "compiler": {
    "name": "solc",
    "version": "0.8.13+commit.abaa5c0e.Emscripten.clang"
  },
  "schemaVersion": "3.4.4",
  "updatedAt": "2022-04-04T05:51:02.243Z",
  "networkType": "ethereum",
  "devdoc": {
    "kind": "dev",
    "methods": {
      "approve(address,uint256)": {
        "details": "See {IERC721-approve}."
      },
      "balanceOf(address)": {
        "details": "See {IERC721-balanceOf}."
      },
      "getApproved(uint256)": {
        "details": "See {IERC721-getApproved}."
      },
      "isApprovedForAll(address,address)": {
        "details": "See {IERC721-isApprovedForAll}."
      },
      "name()": {
        "details": "See {IERC721Metadata-name}."
      },
      "ownerOf(uint256)": {
        "details": "See {IERC721-ownerOf}."
      },
      "safeTransferFrom(address,address,uint256)": {
        "details": "See {IERC721-safeTransferFrom}."
      },
      "safeTransferFrom(address,address,uint256,bytes)": {
        "details": "See {IERC721-safeTransferFrom}."
      },
      "setApprovalForAll(address,bool)": {
        "details": "See {IERC721-setApprovalForAll}."
      },
      "supportsInterface(bytes4)": {
        "details": "See {IERC165-supportsInterface}."
      },
      "symbol()": {
        "details": "See {IERC721Metadata-symbol}."
      },
      "tokenURI(uint256)": {
        "details": "See {IERC721Metadata-tokenURI}."
      },
      "transferFrom(address,address,uint256)": {
        "details": "See {IERC721-transferFrom}."
      }
    },
    "version": 1
  },
  "userdoc": {
    "kind": "user",
    "methods": {},
    "version": 1
  }
}