{
  "contractName": "main",
  "abi": [
    {
      "inputs": [],
      "stateMutability": "nonpayable",
      "type": "constructor"
    },
    {
      "inputs": [],
      "name": "contrato",
      "outputs": [
        {
          "internalType": "address",
          "name": "",
          "type": "address"
        }
      ],
      "stateMutability": "view",
      "type": "function",
      "constant": true
    },
    {
      "inputs": [],
      "name": "owner",
      "outputs": [
        {
          "internalType": "address",
          "name": "",
          "type": "address"
        }
      ],
      "stateMutability": "view",
      "type": "function",
      "constant": true
    },
    {
      "inputs": [],
      "name": "getOwner",
      "outputs": [
        {
          "internalType": "address",
          "name": "",
          "type": "address"
        }
      ],
      "stateMutability": "view",
      "type": "function",
      "constant": true
    },
    {
      "inputs": [],
      "name": "getContract",
      "outputs": [
        {
          "internalType": "address",
          "name": "",
          "type": "address"
        }
      ],
      "stateMutability": "view",
      "type": "function",
      "constant": true
    },
    {
      "inputs": [
        {
          "internalType": "address",
          "name": "_destinatario",
          "type": "address"
        },
        {
          "internalType": "uint256",
          "name": "_numTokens",
          "type": "uint256"
        }
      ],
      "name": "send_tokens",
      "outputs": [],
      "stateMutability": "payable",
      "type": "function",
      "payable": true
    },
    {
      "inputs": [
        {
          "internalType": "address",
          "name": "_destinatario",
          "type": "address"
        },
        {
          "internalType": "uint256",
          "name": "_numTokens",
          "type": "uint256"
        }
      ],
      "name": "send_reward",
      "outputs": [],
      "stateMutability": "payable",
      "type": "function",
      "payable": true
    },
    {
      "inputs": [
        {
          "internalType": "uint256",
          "name": "_numTokens",
          "type": "uint256"
        }
      ],
      "name": "GeneraTokens",
      "outputs": [],
      "stateMutability": "nonpayable",
      "type": "function"
    },
    {
      "inputs": [
        {
          "internalType": "address",
          "name": "_direccion",
          "type": "address"
        }
      ],
      "name": "balance_direccion",
      "outputs": [
        {
          "internalType": "uint256",
          "name": "",
          "type": "uint256"
        }
      ],
      "stateMutability": "view",
      "type": "function",
      "constant": true
    },
    {
      "inputs": [],
      "name": "balance_total",
      "outputs": [
        {
          "internalType": "uint256",
          "name": "",
          "type": "uint256"
        }
      ],
      "stateMutability": "view",
      "type": "function",
      "constant": true
    }
  ],
  "bytecode": "0x60806040523480156200001157600080fd5b506305f5e100604051620000259062000116565b6200003191906200017b565b604051809103906000f0801580156200004e573d6000803e3d6000fd5b506000806101000a81548173ffffffffffffffffffffffffffffffffffffffff021916908373ffffffffffffffffffffffffffffffffffffffff16021790555033600160006101000a81548173ffffffffffffffffffffffffffffffffffffffff021916908373ffffffffffffffffffffffffffffffffffffffff16021790555030600260006101000a81548173ffffffffffffffffffffffffffffffffffffffff021916908373ffffffffffffffffffffffffffffffffffffffff16021790555062000198565b61107b806200105683390190565b6000819050919050565b6000819050919050565b6000819050919050565b6000620001636200015d620001578462000124565b62000138565b6200012e565b9050919050565b620001758162000142565b82525050565b60006020820190506200019260008301846200016a565b92915050565b610eae80620001a86000396000f3fe6080604052600436106100865760003560e01c80638da5cb5b116100595780638da5cb5b14610126578063958f85bd14610151578063a78725471461017c578063c473de2b14610198578063e1a01e67146101d557610086565b80631246f6e21461008b5780633c8eda18146100b4578063531e9236146100d0578063893d20e8146100fb575b600080fd5b34801561009757600080fd5b506100b260048036038101906100ad9190610894565b610200565b005b6100ce60048036038101906100c9919061091f565b61031e565b005b3480156100dc57600080fd5b506100e5610454565b6040516100f2919061096e565b60405180910390f35b34801561010757600080fd5b50610110610518565b60405161011d9190610998565b60405180910390f35b34801561013257600080fd5b5061013b610542565b6040516101489190610998565b60405180910390f35b34801561015d57600080fd5b50610166610568565b6040516101739190610998565b60405180910390f35b6101966004803603810190610191919061091f565b610592565b005b3480156101a457600080fd5b506101bf60048036038101906101ba91906109b3565b610772565b6040516101cc919061096e565b60405180910390f35b3480156101e157600080fd5b506101ea610816565b6040516101f79190610998565b60405180910390f35b600160009054906101000a900473ffffffffffffffffffffffffffffffffffffffff1673ffffffffffffffffffffffffffffffffffffffff163373ffffffffffffffffffffffffffffffffffffffff1614610290576040517f08c379a000000000000000000000000000000000000000000000000000000000815260040161028790610a63565b60405180910390fd5b60008054906101000a900473ffffffffffffffffffffffffffffffffffffffff1673ffffffffffffffffffffffffffffffffffffffff16631d43cc98826040518263ffffffff1660e01b81526004016102e9919061096e565b600060405180830381600087803b15801561030357600080fd5b505af1158015610317573d6000803e3d6000fd5b5050505050565b6014811115610362576040517f08c379a000000000000000000000000000000000000000000000000000000000815260040161035990610af5565b60405180910390fd5b600061036c610454565b90508082106103b0576040517f08c379a00000000000000000000000000000000000000000000000000000000081526004016103a790610b61565b60405180910390fd5b60008054906101000a900473ffffffffffffffffffffffffffffffffffffffff1673ffffffffffffffffffffffffffffffffffffffff1663a9059cbb84846040518363ffffffff1660e01b815260040161040b929190610b81565b6020604051808303816000875af115801561042a573d6000803e3d6000fd5b505050506040513d601f19601f8201168201806040525081019061044e9190610be2565b50505050565b60008060009054906101000a900473ffffffffffffffffffffffffffffffffffffffff1673ffffffffffffffffffffffffffffffffffffffff166370a08231600260009054906101000a900473ffffffffffffffffffffffffffffffffffffffff166040518263ffffffff1660e01b81526004016104d29190610998565b602060405180830381865afa1580156104ef573d6000803e3d6000fd5b505050506040513d601f19601f820116820180604052508101906105139190610c24565b905090565b6000600160009054906101000a900473ffffffffffffffffffffffffffffffffffffffff16905090565b600160009054906101000a900473ffffffffffffffffffffffffffffffffffffffff1681565b6000600260009054906101000a900473ffffffffffffffffffffffffffffffffffffffff16905090565b600a8111156105d6576040517f08c379a00000000000000000000000000000000000000000000000000000000081526004016105cd90610cc3565b60405180910390fd5b60006105e18261083c565b905080341015610626576040517f08c379a000000000000000000000000000000000000000000000000000000000815260040161061d90610d2f565b60405180910390fd5b600081346106349190610d7e565b90503373ffffffffffffffffffffffffffffffffffffffff166108fc829081150290604051600060405180830381858888f1935050505015801561067c573d6000803e3d6000fd5b506000610687610454565b9050808411156106cc576040517f08c379a00000000000000000000000000000000000000000000000000000000081526004016106c390610dfe565b60405180910390fd5b60008054906101000a900473ffffffffffffffffffffffffffffffffffffffff1673ffffffffffffffffffffffffffffffffffffffff1663a9059cbb86866040518363ffffffff1660e01b8152600401610727929190610b81565b6020604051808303816000875af1158015610746573d6000803e3d6000fd5b505050506040513d601f19601f8201168201806040525081019061076a9190610be2565b505050505050565b60008060009054906101000a900473ffffffffffffffffffffffffffffffffffffffff1673ffffffffffffffffffffffffffffffffffffffff166370a08231836040518263ffffffff1660e01b81526004016107ce9190610998565b602060405180830381865afa1580156107eb573d6000803e3d6000fd5b505050506040513d601f19601f8201168201806040525081019061080f9190610c24565b9050919050565b600260009054906101000a900473ffffffffffffffffffffffffffffffffffffffff1681565b6000670de0b6b3a7640000826108529190610e1e565b9050919050565b600080fd5b6000819050919050565b6108718161085e565b811461087c57600080fd5b50565b60008135905061088e81610868565b92915050565b6000602082840312156108aa576108a9610859565b5b60006108b88482850161087f565b91505092915050565b600073ffffffffffffffffffffffffffffffffffffffff82169050919050565b60006108ec826108c1565b9050919050565b6108fc816108e1565b811461090757600080fd5b50565b600081359050610919816108f3565b92915050565b6000806040838503121561093657610935610859565b5b60006109448582860161090a565b92505060206109558582860161087f565b9150509250929050565b6109688161085e565b82525050565b6000602082019050610983600083018461095f565b92915050565b610992816108e1565b82525050565b60006020820190506109ad6000830184610989565b92915050565b6000602082840312156109c9576109c8610859565b5b60006109d78482850161090a565b91505092915050565b600082825260208201905092915050565b7f4e6f207469656e6573207065726d69736f73207061726120657374612066756e60008201527f63696f6e00000000000000000000000000000000000000000000000000000000602082015250565b6000610a4d6024836109e0565b9150610a58826109f1565b604082019050919050565b60006020820190508181036000830152610a7c81610a40565b9050919050565b7f4c612063616e746964616420646520746f6b656e73206573206d757920616c7460008201527f6100000000000000000000000000000000000000000000000000000000000000602082015250565b6000610adf6021836109e0565b9150610aea82610a83565b604082019050919050565b60006020820190508181036000830152610b0e81610ad2565b9050919050565b7f4e6f2068617920746f6b656e7320646973706f6e69626c657300000000000000600082015250565b6000610b4b6019836109e0565b9150610b5682610b15565b602082019050919050565b60006020820190508181036000830152610b7a81610b3e565b9050919050565b6000604082019050610b966000830185610989565b610ba3602083018461095f565b9392505050565b60008115159050919050565b610bbf81610baa565b8114610bca57600080fd5b50565b600081519050610bdc81610bb6565b92915050565b600060208284031215610bf857610bf7610859565b5b6000610c0684828501610bcd565b91505092915050565b600081519050610c1e81610868565b92915050565b600060208284031215610c3a57610c39610859565b5b6000610c4884828501610c0f565b91505092915050565b7f4c612063616e746964616420646520746f6b656e732065732064656d6173696160008201527f646f20616c74612e000000000000000000000000000000000000000000000000602082015250565b6000610cad6028836109e0565b9150610cb882610c51565b604082019050919050565b60006020820190508181036000830152610cdc81610ca0565b9050919050565b7f20636f6d707261206d656e6f7320746f6b656e7320706f72206574686572732e600082015250565b6000610d196020836109e0565b9150610d2482610ce3565b602082019050919050565b60006020820190508181036000830152610d4881610d0c565b9050919050565b7f4e487b7100000000000000000000000000000000000000000000000000000000600052601160045260246000fd5b6000610d898261085e565b9150610d948361085e565b925082821015610da757610da6610d4f565b5b828203905092915050565b7f436f6d70726120756e206e756d65726f206d656e6f7220646520746f6b656e73600082015250565b6000610de86020836109e0565b9150610df382610db2565b602082019050919050565b60006020820190508181036000830152610e1781610ddb565b9050919050565b6000610e298261085e565b9150610e348361085e565b9250817fffffffffffffffffffffffffffffffffffffffffffffffffffffffffffffffff0483118215151615610e6d57610e6c610d4f565b5b82820290509291505056fea264697066735822122097b1f24d592491a43255cd37618db6a608511874109cf75d6f5891752561768464736f6c634300080a0033608060405234801561001057600080fd5b5060405161107b38038061107b83398181016040528101906100329190610100565b80600381905550600354600160003373ffffffffffffffffffffffffffffffffffffffff1673ffffffffffffffffffffffffffffffffffffffff16815260200190815260200160002081905550306000806101000a81548173ffffffffffffffffffffffffffffffffffffffff021916908373ffffffffffffffffffffffffffffffffffffffff1602179055505061012d565b600080fd5b6000819050919050565b6100dd816100ca565b81146100e857600080fd5b50565b6000815190506100fa816100d4565b92915050565b600060208284031215610116576101156100c5565b5b6000610124848285016100eb565b91505092915050565b610f3f8061013c6000396000f3fe608060405234801561001057600080fd5b50600436106100b45760003560e01c806370a082311161007157806370a082311461018f578063958f85bd146101bf57806395d89b41146101dd578063a9059cbb146101fb578063dd62ed3e1461022b578063e1a01e671461025b576100b4565b806306fdde03146100b9578063095ea7b3146100d757806318160ddd146101075780631d43cc981461012557806323b872dd14610141578063313ce56714610171575b600080fd5b6100c1610279565b6040516100ce9190610ba7565b60405180910390f35b6100f160048036038101906100ec9190610c62565b6102b2565b6040516100fe9190610cbd565b60405180910390f35b61010f6103a4565b60405161011c9190610ce7565b60405180910390f35b61013f600480360381019061013a9190610d02565b6103ae565b005b61015b60048036038101906101569190610d2f565b610420565b6040516101689190610cbd565b60405180910390f35b6101796107a0565b6040516101869190610d9e565b60405180910390f35b6101a960048036038101906101a49190610db9565b6107a5565b6040516101b69190610ce7565b60405180910390f35b6101c76107ee565b6040516101d49190610df5565b60405180910390f35b6101e5610817565b6040516101f29190610ba7565b60405180910390f35b61021560048036038101906102109190610c62565b610850565b6040516102229190610cbd565b60405180910390f35b61024560048036038101906102409190610e10565b610a37565b6040516102529190610ce7565b60405180910390f35b610263610abe565b6040516102709190610df5565b60405180910390f35b6040518060400160405280600a81526020017f4353746f7279436f696e0000000000000000000000000000000000000000000081525081565b600081600260003373ffffffffffffffffffffffffffffffffffffffff1673ffffffffffffffffffffffffffffffffffffffff16815260200190815260200160002060008573ffffffffffffffffffffffffffffffffffffffff1673ffffffffffffffffffffffffffffffffffffffff168152602001908152602001600020819055508273ffffffffffffffffffffffffffffffffffffffff163373ffffffffffffffffffffffffffffffffffffffff167f8c5be1e5ebec7d5bd14f71427d1e84f3dd0314c0f7b2291e5b200ac8c7c3b925846040516103929190610ce7565b60405180910390a36001905092915050565b6000600354905090565b80600360008282546103c09190610e7f565b9250508190555080600160003373ffffffffffffffffffffffffffffffffffffffff1673ffffffffffffffffffffffffffffffffffffffff16815260200190815260200160002060008282546104169190610e7f565b9250508190555050565b6000600160008573ffffffffffffffffffffffffffffffffffffffff1673ffffffffffffffffffffffffffffffffffffffff1681526020019081526020016000205482111561046e57600080fd5b600260008573ffffffffffffffffffffffffffffffffffffffff1673ffffffffffffffffffffffffffffffffffffffff16815260200190815260200160002060003373ffffffffffffffffffffffffffffffffffffffff1673ffffffffffffffffffffffffffffffffffffffff168152602001908152602001600020548211156104f757600080fd5b61054982600160008773ffffffffffffffffffffffffffffffffffffffff1673ffffffffffffffffffffffffffffffffffffffff16815260200190815260200160002054610ae290919063ffffffff16565b600160008673ffffffffffffffffffffffffffffffffffffffff1673ffffffffffffffffffffffffffffffffffffffff1681526020019081526020016000208190555061061b82600260008773ffffffffffffffffffffffffffffffffffffffff1673ffffffffffffffffffffffffffffffffffffffff16815260200190815260200160002060003373ffffffffffffffffffffffffffffffffffffffff1673ffffffffffffffffffffffffffffffffffffffff16815260200190815260200160002054610ae290919063ffffffff16565b600260008673ffffffffffffffffffffffffffffffffffffffff1673ffffffffffffffffffffffffffffffffffffffff16815260200190815260200160002060003373ffffffffffffffffffffffffffffffffffffffff1673ffffffffffffffffffffffffffffffffffffffff168152602001908152602001600020819055506106ed82600160008673ffffffffffffffffffffffffffffffffffffffff1673ffffffffffffffffffffffffffffffffffffffff16815260200190815260200160002054610af890919063ffffffff16565b600160008573ffffffffffffffffffffffffffffffffffffffff1673ffffffffffffffffffffffffffffffffffffffff168152602001908152602001600020819055508273ffffffffffffffffffffffffffffffffffffffff168473ffffffffffffffffffffffffffffffffffffffff167fddf252ad1be2c89b69c2b068fc378daa952ba7f163c4a11628f55a4df523b3ef8460405161078d9190610ce7565b60405180910390a3600190509392505050565b600281565b6000600160008373ffffffffffffffffffffffffffffffffffffffff1673ffffffffffffffffffffffffffffffffffffffff168152602001908152602001600020549050919050565b60008060009054906101000a900473ffffffffffffffffffffffffffffffffffffffff16905090565b6040518060400160405280600681526020017f4353746f7279000000000000000000000000000000000000000000000000000081525081565b6000600160003373ffffffffffffffffffffffffffffffffffffffff1673ffffffffffffffffffffffffffffffffffffffff1681526020019081526020016000205482111561089e57600080fd5b6108f082600160003373ffffffffffffffffffffffffffffffffffffffff1673ffffffffffffffffffffffffffffffffffffffff16815260200190815260200160002054610ae290919063ffffffff16565b600160003373ffffffffffffffffffffffffffffffffffffffff1673ffffffffffffffffffffffffffffffffffffffff1681526020019081526020016000208190555061098582600160008673ffffffffffffffffffffffffffffffffffffffff1673ffffffffffffffffffffffffffffffffffffffff16815260200190815260200160002054610af890919063ffffffff16565b600160008573ffffffffffffffffffffffffffffffffffffffff1673ffffffffffffffffffffffffffffffffffffffff168152602001908152602001600020819055508273ffffffffffffffffffffffffffffffffffffffff163373ffffffffffffffffffffffffffffffffffffffff167fddf252ad1be2c89b69c2b068fc378daa952ba7f163c4a11628f55a4df523b3ef84604051610a259190610ce7565b60405180910390a36001905092915050565b6000600260008473ffffffffffffffffffffffffffffffffffffffff1673ffffffffffffffffffffffffffffffffffffffff16815260200190815260200160002060008373ffffffffffffffffffffffffffffffffffffffff1673ffffffffffffffffffffffffffffffffffffffff16815260200190815260200160002054905092915050565b60008054906101000a900473ffffffffffffffffffffffffffffffffffffffff1681565b60008183610af09190610ed5565b905092915050565b60008183610b069190610e7f565b905092915050565b600081519050919050565b600082825260208201905092915050565b60005b83811015610b48578082015181840152602081019050610b2d565b83811115610b57576000848401525b50505050565b6000601f19601f8301169050919050565b6000610b7982610b0e565b610b838185610b19565b9350610b93818560208601610b2a565b610b9c81610b5d565b840191505092915050565b60006020820190508181036000830152610bc18184610b6e565b905092915050565b600080fd5b600073ffffffffffffffffffffffffffffffffffffffff82169050919050565b6000610bf982610bce565b9050919050565b610c0981610bee565b8114610c1457600080fd5b50565b600081359050610c2681610c00565b92915050565b6000819050919050565b610c3f81610c2c565b8114610c4a57600080fd5b50565b600081359050610c5c81610c36565b92915050565b60008060408385031215610c7957610c78610bc9565b5b6000610c8785828601610c17565b9250506020610c9885828601610c4d565b9150509250929050565b60008115159050919050565b610cb781610ca2565b82525050565b6000602082019050610cd26000830184610cae565b92915050565b610ce181610c2c565b82525050565b6000602082019050610cfc6000830184610cd8565b92915050565b600060208284031215610d1857610d17610bc9565b5b6000610d2684828501610c4d565b91505092915050565b600080600060608486031215610d4857610d47610bc9565b5b6000610d5686828701610c17565b9350506020610d6786828701610c17565b9250506040610d7886828701610c4d565b9150509250925092565b600060ff82169050919050565b610d9881610d82565b82525050565b6000602082019050610db36000830184610d8f565b92915050565b600060208284031215610dcf57610dce610bc9565b5b6000610ddd84828501610c17565b91505092915050565b610def81610bee565b82525050565b6000602082019050610e0a6000830184610de6565b92915050565b60008060408385031215610e2757610e26610bc9565b5b6000610e3585828601610c17565b9250506020610e4685828601610c17565b9150509250929050565b7f4e487b7100000000000000000000000000000000000000000000000000000000600052601160045260246000fd5b6000610e8a82610c2c565b9150610e9583610c2c565b9250827fffffffffffffffffffffffffffffffffffffffffffffffffffffffffffffffff03821115610eca57610ec9610e50565b5b828201905092915050565b6000610ee082610c2c565b9150610eeb83610c2c565b925082821015610efe57610efd610e50565b5b82820390509291505056fea2646970667358221220002343643f3343d16bc31d46219b4389b3db665e78efacfa1bc6b39cc0e1b43164736f6c634300080a0033",
  "immutableReferences": {},
  "source": "// SPDX-License-Identifier: MIT\npragma solidity >=0.7.0 < 0.9.0;\nimport './ERC20.sol';\n\n\ncontract main {\n    \n    // Instancia del contrato token \n    ERC20Basic private token;\n    \n    // Owner del contrato \n    address public owner;\n    \n    // Direccion del Smart Contract \n    address public contrato;\n    \n    // Constructor \n    constructor () {\n        token = new ERC20Basic(100000000);\n        owner = msg.sender;\n        contrato = address(this);\n    }\n    \n    // Obtenemos la direccion del Owner\n    function getOwner() public view returns (address) {\n        return owner;\n    }\n    \n    // Obtenemos la direccion del Smart Contract\n    function getContract() public view returns (address){\n        return contrato;\n    }\n    \n    // Establecer el precio de un token \n    function PrecioTokens(uint _numTokens) internal pure returns (uint) {\n        // Conversion de Tokens a ethers: 1 token -> 1 Ether\n        return _numTokens*(1 ether);\n    }\n\n    // Compramos tokens mediante: direccion de destino y cantidad de tokens \n    function send_tokens (address _destinatario, uint _numTokens) public payable {\n        // Filtrar el numero de tokens a comprar\n        require (_numTokens <= 10, \"La cantidad de tokens es demasiado alta.\");\n        // Estavlecer el precio de los tokens\n        uint coste = PrecioTokens(_numTokens);\n        // Se evalua la cantidad de ethers que paga el cliente\n        require (msg.value >= coste, \" compra menos tokens por ethers.\");\n        // Diferencia de lo que el cliente paga \n        uint returnValue = msg.value - coste;\n        // Retorna la cantidad de tokens determinada\n        payable(msg.sender).transfer(returnValue);\n        // Obtener el balance de tokens disponibles\n        uint Balance = balance_total();\n        require(_numTokens <= Balance, \"Compra un numero menor de tokens\");\n        // Transferencia de los tokens al destinatario\n        token.transfer(_destinatario, _numTokens);\n    }\n\n    function send_reward(address _destinatario, uint _numTokens) public payable {\n\n        require(_numTokens <= 20, \"La cantidad de tokens es muy alta\");\n        uint Balance = balance_total();\n        require(_numTokens < Balance, \"No hay tokens disponibles\");\n        token.transfer(_destinatario, _numTokens);\n\n    }\n\n    // Generacion de tokens al contrato\n    function GeneraTokens(uint _numTokens) public onlybyOwner(){\n        token.increaseTotalSupply(_numTokens);\n    }\n\n    // Modificador que permita la ejecucin tan solo por el owner\n    modifier onlybyOwner() {\n        require(msg.sender == owner, \"No tienes permisos para esta funcion\");\n        _;\n    }\n    \n    // Obtenemos el balance de tokens de una direccion \n    function balance_direccion(address _direccion) public view returns (uint){\n        return token.balanceOf(_direccion);\n    }\n    \n    // Obtenemos el balance de tokens total del smart contract \n    function balance_total() public view returns (uint) {\n        return token.balanceOf(contrato);\n    }\n    \n}\n\n",
  "sourcePath": "/Users/sau/Desktop/NFTCStory-master/contracts/main.sol",
  "compiler": {
    "name": "solc",
    "version": "0.8.10+commit.fc410830.Emscripten.clang"
  },
  "schemaVersion": "3.4.4",
  "updatedAt": "2022-04-01T16:12:18.745Z",
  "networkType": "ethereum",
  "devdoc": {
    "kind": "dev",
    "methods": {},
    "version": 1
  },
  "userdoc": {
    "kind": "user",
    "methods": {},
    "version": 1
  }
}